{
  "contractName": "CatToken",
  "abi": [
    {
      "inputs": [],
      "stateMutability": "nonpayable",
      "type": "constructor"
    },
    {
      "anonymous": false,
      "inputs": [
        {
          "indexed": true,
          "internalType": "address",
          "name": "_owner",
          "type": "address"
        },
        {
          "indexed": true,
          "internalType": "address",
          "name": "_spender",
          "type": "address"
        },
        {
          "indexed": false,
          "internalType": "uint256",
          "name": "value",
          "type": "uint256"
        }
      ],
      "name": "Approval",
      "type": "event"
    },
    {
      "anonymous": false,
      "inputs": [
        {
          "indexed": true,
          "internalType": "address",
          "name": "_from",
          "type": "address"
        },
        {
          "indexed": true,
          "internalType": "address",
          "name": "_to",
          "type": "address"
        },
        {
          "indexed": false,
          "internalType": "uint256",
          "name": "_value",
          "type": "uint256"
        }
      ],
      "name": "Transfer",
      "type": "event"
    },
    {
      "inputs": [
        {
          "internalType": "address",
          "name": "",
          "type": "address"
        },
        {
          "internalType": "address",
          "name": "",
          "type": "address"
        }
      ],
      "name": "allowance",
      "outputs": [
        {
          "internalType": "uint256",
          "name": "",
          "type": "uint256"
        }
      ],
      "stateMutability": "view",
      "type": "function",
      "constant": true
    },
    {
      "inputs": [
        {
          "internalType": "address",
          "name": "",
          "type": "address"
        }
      ],
      "name": "balanceOf",
      "outputs": [
        {
          "internalType": "uint256",
          "name": "",
          "type": "uint256"
        }
      ],
      "stateMutability": "view",
      "type": "function",
      "constant": true
    },
    {
      "inputs": [],
      "name": "decimals",
      "outputs": [
        {
          "internalType": "uint8",
          "name": "",
          "type": "uint8"
        }
      ],
      "stateMutability": "view",
      "type": "function",
      "constant": true
    },
    {
      "inputs": [],
      "name": "name",
      "outputs": [
        {
          "internalType": "string",
          "name": "",
          "type": "string"
        }
      ],
      "stateMutability": "view",
      "type": "function",
      "constant": true
    },
    {
      "inputs": [],
      "name": "symbol",
      "outputs": [
        {
          "internalType": "string",
          "name": "",
          "type": "string"
        }
      ],
      "stateMutability": "view",
      "type": "function",
      "constant": true
    },
    {
      "inputs": [],
      "name": "totalSupply",
      "outputs": [
        {
          "internalType": "uint256",
          "name": "",
          "type": "uint256"
        }
      ],
      "stateMutability": "view",
      "type": "function",
      "constant": true
    },
    {
      "inputs": [
        {
          "internalType": "address",
          "name": "_to",
          "type": "address"
        },
        {
          "internalType": "uint256",
          "name": "_value",
          "type": "uint256"
        }
      ],
      "name": "transfer",
      "outputs": [
        {
          "internalType": "bool",
          "name": "success",
          "type": "bool"
        }
      ],
      "stateMutability": "nonpayable",
      "type": "function"
    },
    {
      "inputs": [
        {
          "internalType": "address",
          "name": "_spender",
          "type": "address"
        },
        {
          "internalType": "uint256",
          "name": "_value",
          "type": "uint256"
        }
      ],
      "name": "approve",
      "outputs": [
        {
          "internalType": "bool",
          "name": "success",
          "type": "bool"
        }
      ],
      "stateMutability": "nonpayable",
      "type": "function"
    },
    {
      "inputs": [
        {
          "internalType": "address",
          "name": "_from",
          "type": "address"
        },
        {
          "internalType": "address",
          "name": "_to",
          "type": "address"
        },
        {
          "internalType": "uint256",
          "name": "_value",
          "type": "uint256"
        }
      ],
      "name": "tranferFrom",
      "outputs": [
        {
          "internalType": "bool",
          "name": "success",
          "type": "bool"
        }
      ],
      "stateMutability": "nonpayable",
      "type": "function"
    }
  ],
  "bytecode": "0x60806040526040518060400160405280600981526020017f43617420546f6b656e0000000000000000000000000000000000000000000000815250600090805190602001906200005192919062000124565b506040518060400160405280600381526020017f4341540000000000000000000000000000000000000000000000000000000000815250600190805190602001906200009f92919062000124565b5069d3c21bcecceda10000006002556012600360006101000a81548160ff021916908360ff160217905550348015620000d757600080fd5b50600254600460003373ffffffffffffffffffffffffffffffffffffffff1673ffffffffffffffffffffffffffffffffffffffff1681526020019081526020016000208190555062000239565b8280546200013290620001d4565b90600052602060002090601f016020900481019282620001565760008555620001a2565b82601f106200017157805160ff1916838001178555620001a2565b82800160010185558215620001a2579182015b82811115620001a157825182559160200191906001019062000184565b5b509050620001b19190620001b5565b5090565b5b80821115620001d0576000816000905550600101620001b6565b5090565b60006002820490506001821680620001ed57607f821691505b602082108114156200020457620002036200020a565b5b50919050565b7f4e487b7100000000000000000000000000000000000000000000000000000000600052602260045260246000fd5b610d1b80620002496000396000f3fe608060405234801561001057600080fd5b50600436106100935760003560e01c806370a082311161006657806370a08231146101225780639264a1691461015257806395d89b4114610182578063a9059cbb146101a0578063dd62ed3e146101d057610093565b806306fdde0314610098578063095ea7b3146100b657806318160ddd146100e6578063313ce56714610104575b600080fd5b6100a0610200565b6040516100ad9190610a47565b60405180910390f35b6100d060048036038101906100cb9190610967565b61028e565b6040516100dd9190610a2c565b60405180910390f35b6100ee610380565b6040516100fb9190610a89565b60405180910390f35b61010c610386565b6040516101199190610aa4565b60405180910390f35b61013c600480360381019061013791906108b3565b610399565b6040516101499190610a89565b60405180910390f35b61016c60048036038101906101679190610918565b6103b1565b6040516101799190610a2c565b60405180910390f35b61018a610637565b6040516101979190610a47565b60405180910390f35b6101ba60048036038101906101b59190610967565b6106c5565b6040516101c79190610a2c565b60405180910390f35b6101ea60048036038101906101e591906108dc565b610864565b6040516101f79190610a89565b60405180910390f35b6000805461020d90610bed565b80601f016020809104026020016040519081016040528092919081815260200182805461023990610bed565b80156102865780601f1061025b57610100808354040283529160200191610286565b820191906000526020600020905b81548152906001019060200180831161026957829003601f168201915b505050505081565b600081600560003373ffffffffffffffffffffffffffffffffffffffff1673ffffffffffffffffffffffffffffffffffffffff16815260200190815260200160002060008573ffffffffffffffffffffffffffffffffffffffff1673ffffffffffffffffffffffffffffffffffffffff168152602001908152602001600020819055508273ffffffffffffffffffffffffffffffffffffffff163373ffffffffffffffffffffffffffffffffffffffff167f8c5be1e5ebec7d5bd14f71427d1e84f3dd0314c0f7b2291e5b200ac8c7c3b9258460405161036e9190610a89565b60405180910390a36001905092915050565b60025481565b600360009054906101000a900460ff1681565b60046020528060005260406000206000915090505481565b6000600460008573ffffffffffffffffffffffffffffffffffffffff1673ffffffffffffffffffffffffffffffffffffffff168152602001908152602001600020548211156103ff57600080fd5b600560008573ffffffffffffffffffffffffffffffffffffffff1673ffffffffffffffffffffffffffffffffffffffff16815260200190815260200160002060003373ffffffffffffffffffffffffffffffffffffffff1673ffffffffffffffffffffffffffffffffffffffff1681526020019081526020016000205482111561048857600080fd5b81600460008673ffffffffffffffffffffffffffffffffffffffff1673ffffffffffffffffffffffffffffffffffffffff16815260200190815260200160002060008282546104d79190610b31565b9250508190555081600460008573ffffffffffffffffffffffffffffffffffffffff1673ffffffffffffffffffffffffffffffffffffffff168152602001908152602001600020600082825461052d9190610adb565b9250508190555081600560008673ffffffffffffffffffffffffffffffffffffffff1673ffffffffffffffffffffffffffffffffffffffff16815260200190815260200160002060003373ffffffffffffffffffffffffffffffffffffffff1673ffffffffffffffffffffffffffffffffffffffff16815260200190815260200160002060008282546105c09190610b31565b925050819055508273ffffffffffffffffffffffffffffffffffffffff168473ffffffffffffffffffffffffffffffffffffffff167fddf252ad1be2c89b69c2b068fc378daa952ba7f163c4a11628f55a4df523b3ef846040516106249190610a89565b60405180910390a3600190509392505050565b6001805461064490610bed565b80601f016020809104026020016040519081016040528092919081815260200182805461067090610bed565b80156106bd5780601f10610692576101008083540402835291602001916106bd565b820191906000526020600020905b8154815290600101906020018083116106a057829003601f168201915b505050505081565b600081600460003373ffffffffffffffffffffffffffffffffffffffff1673ffffffffffffffffffffffffffffffffffffffff168152602001908152602001600020541015610749576040517f08c379a000000000000000000000000000000000000000000000000000000000815260040161074090610a69565b60405180910390fd5b81600460003373ffffffffffffffffffffffffffffffffffffffff1673ffffffffffffffffffffffffffffffffffffffff16815260200190815260200160002060008282546107989190610b31565b9250508190555081600460008573ffffffffffffffffffffffffffffffffffffffff1673ffffffffffffffffffffffffffffffffffffffff16815260200190815260200160002060008282546107ee9190610adb565b925050819055508273ffffffffffffffffffffffffffffffffffffffff163373ffffffffffffffffffffffffffffffffffffffff167fddf252ad1be2c89b69c2b068fc378daa952ba7f163c4a11628f55a4df523b3ef846040516108529190610a89565b60405180910390a36001905092915050565b6005602052816000526040600020602052806000526040600020600091509150505481565b60008135905061089881610cb7565b92915050565b6000813590506108ad81610cce565b92915050565b6000602082840312156108c557600080fd5b60006108d384828501610889565b91505092915050565b600080604083850312156108ef57600080fd5b60006108fd85828601610889565b925050602061090e85828601610889565b9150509250929050565b60008060006060848603121561092d57600080fd5b600061093b86828701610889565b935050602061094c86828701610889565b925050604061095d8682870161089e565b9150509250925092565b6000806040838503121561097a57600080fd5b600061098885828601610889565b92505060206109998582860161089e565b9150509250929050565b6109ac81610b77565b82525050565b60006109bd82610abf565b6109c78185610aca565b93506109d7818560208601610bba565b6109e081610c7d565b840191505092915050565b60006109f8601483610aca565b9150610a0382610c8e565b602082019050919050565b610a1781610ba3565b82525050565b610a2681610bad565b82525050565b6000602082019050610a4160008301846109a3565b92915050565b60006020820190508181036000830152610a6181846109b2565b905092915050565b60006020820190508181036000830152610a82816109eb565b9050919050565b6000602082019050610a9e6000830184610a0e565b92915050565b6000602082019050610ab96000830184610a1d565b92915050565b600081519050919050565b600082825260208201905092915050565b6000610ae682610ba3565b9150610af183610ba3565b9250827fffffffffffffffffffffffffffffffffffffffffffffffffffffffffffffffff03821115610b2657610b25610c1f565b5b828201905092915050565b6000610b3c82610ba3565b9150610b4783610ba3565b925082821015610b5a57610b59610c1f565b5b828203905092915050565b6000610b7082610b83565b9050919050565b60008115159050919050565b600073ffffffffffffffffffffffffffffffffffffffff82169050919050565b6000819050919050565b600060ff82169050919050565b60005b83811015610bd8578082015181840152602081019050610bbd565b83811115610be7576000848401525b50505050565b60006002820490506001821680610c0557607f821691505b60208210811415610c1957610c18610c4e565b5b50919050565b7f4e487b7100000000000000000000000000000000000000000000000000000000600052601160045260246000fd5b7f4e487b7100000000000000000000000000000000000000000000000000000000600052602260045260246000fd5b6000601f19601f8301169050919050565b7f496e73756666696369656e742062616c616e6365000000000000000000000000600082015250565b610cc081610b65565b8114610ccb57600080fd5b50565b610cd781610ba3565b8114610ce257600080fd5b5056fea264697066735822122026a0d59fbae4fd7939c3668e88da2449fd3970f1d91f9a28b61f0c76a760b79a64736f6c63430008040033",
  "immutableReferences": {},
  "source": "// SPDX-License-Identifier: MIT\npragma solidity ^0.8.4;\n\ncontract CatToken {\n    // Declaraciones\n    string public name = \"Cat Token\";\n    string public symbol = \"CAT\";\n    uint256 public totalSupply = 1000000000000000000000000; // 1 millon de tokens\n    uint8 public decimals = 18;\n\n    // Evento para la tranferencia de tokens de un usuario\n    event Transfer (\n        address indexed _from,\n        address indexed _to,\n        uint _value\n    );\n\n    // Evento para la aprobacion de un operador\n    event Approval (\n        address indexed _owner,\n        address indexed _spender,\n        uint256 value\n    );\n    \n    // Estructura de datos\n    mapping(address => uint256) public balanceOf;\n    mapping(address => mapping(address => uint256)) public allowance;\n\n    // Constructor\n    constructor(){\n        balanceOf[msg.sender] = totalSupply;\n    }\n\n    // Transferencia de tokens de un usuario\n    function transfer(address _to, uint256 _value) public returns (bool success){\n        require(balanceOf[msg.sender] >= _value, \"Insufficient balance\");\n        balanceOf[msg.sender] -= _value;\n        balanceOf[_to] += _value;\n        emit Transfer(msg.sender, _to, _value);\n        return true;\n    }\n\n    // Aprobacion de una cantidad para ser gastada por un operador\n    function approve(address _spender, uint256 _value) public returns (bool success){\n        allowance[msg.sender][_spender] = _value;\n        emit Approval(msg.sender, _spender, _value);\n        return true;\n    }\n\n    // Tranferenciua de tokens especificandop el emisor\n    function tranferFrom(address _from, address _to, uint256 _value) public returns (bool success){\n        require(_value <= balanceOf[_from]);\n        require(_value <= allowance[_from][msg.sender]);\n        balanceOf[_from] -= _value;\n        balanceOf[_to] += _value;\n        allowance[_from][msg.sender] -= _value;\n        emit Transfer(_from, _to, _value);\n        return true;\n    }\n}\n",
  "sourcePath": "C:\\Users\\rober_m72ddjp\\Desktop\\Coding\\amengual\\DEFI\\src\\contracts\\CatToken.sol",
  "compiler": {
    "name": "solc",
    "version": "0.8.4+commit.c7e474f2.Emscripten.clang"
  },
  "schemaVersion": "3.4.7",
  "updatedAt": "2024-11-25T16:48:18.227Z",
  "networkType": "ethereum",
  "devdoc": {
    "kind": "dev",
    "methods": {},
    "version": 1
  },
  "userdoc": {
    "kind": "user",
    "methods": {},
    "version": 1
  }
}