{
  "contractName": "TokenFarm",
  "abi": [
    {
      "inputs": [
        {
          "internalType": "contract RobToken",
          "name": "_robToken",
          "type": "address"
        },
        {
          "internalType": "contract CatToken",
          "name": "_catToken",
          "type": "address"
        }
      ],
      "stateMutability": "nonpayable",
      "type": "constructor"
    },
    {
      "inputs": [],
      "name": "catToken",
      "outputs": [
        {
          "internalType": "contract CatToken",
          "name": "",
          "type": "address"
        }
      ],
      "stateMutability": "view",
      "type": "function",
      "constant": true
    },
    {
      "inputs": [
        {
          "internalType": "address",
          "name": "",
          "type": "address"
        }
      ],
      "name": "hasStaked",
      "outputs": [
        {
          "internalType": "bool",
          "name": "",
          "type": "bool"
        }
      ],
      "stateMutability": "view",
      "type": "function",
      "constant": true
    },
    {
      "inputs": [
        {
          "internalType": "address",
          "name": "",
          "type": "address"
        }
      ],
      "name": "isStaking",
      "outputs": [
        {
          "internalType": "bool",
          "name": "",
          "type": "bool"
        }
      ],
      "stateMutability": "view",
      "type": "function",
      "constant": true
    },
    {
      "inputs": [],
      "name": "name",
      "outputs": [
        {
          "internalType": "string",
          "name": "",
          "type": "string"
        }
      ],
      "stateMutability": "view",
      "type": "function",
      "constant": true
    },
    {
      "inputs": [],
      "name": "owner",
      "outputs": [
        {
          "internalType": "address",
          "name": "",
          "type": "address"
        }
      ],
      "stateMutability": "view",
      "type": "function",
      "constant": true
    },
    {
      "inputs": [],
      "name": "robToken",
      "outputs": [
        {
          "internalType": "contract RobToken",
          "name": "",
          "type": "address"
        }
      ],
      "stateMutability": "view",
      "type": "function",
      "constant": true
    },
    {
      "inputs": [
        {
          "internalType": "uint256",
          "name": "",
          "type": "uint256"
        }
      ],
      "name": "stakers",
      "outputs": [
        {
          "internalType": "address",
          "name": "",
          "type": "address"
        }
      ],
      "stateMutability": "view",
      "type": "function",
      "constant": true
    },
    {
      "inputs": [
        {
          "internalType": "address",
          "name": "",
          "type": "address"
        }
      ],
      "name": "stakingBalance",
      "outputs": [
        {
          "internalType": "uint256",
          "name": "",
          "type": "uint256"
        }
      ],
      "stateMutability": "view",
      "type": "function",
      "constant": true
    },
    {
      "inputs": [
        {
          "internalType": "uint256",
          "name": "_amount",
          "type": "uint256"
        }
      ],
      "name": "stakeToken",
      "outputs": [],
      "stateMutability": "nonpayable",
      "type": "function"
    },
    {
      "inputs": [],
      "name": "unstakeToken",
      "outputs": [],
      "stateMutability": "nonpayable",
      "type": "function"
    },
    {
      "inputs": [],
      "name": "issueToken",
      "outputs": [],
      "stateMutability": "nonpayable",
      "type": "function"
    }
  ],
  "bytecode": "0x60806040526040518060400160405280600e81526020017f526f6220546f6b656e204661726d000000000000000000000000000000000000815250600090805190602001906200005192919062000150565b503480156200005f57600080fd5b50604051620014153803806200141583398181016040528101906200008591906200022e565b81600260006101000a81548173ffffffffffffffffffffffffffffffffffffffff021916908373ffffffffffffffffffffffffffffffffffffffff16021790555080600360006101000a81548173ffffffffffffffffffffffffffffffffffffffff021916908373ffffffffffffffffffffffffffffffffffffffff16021790555033600160006101000a81548173ffffffffffffffffffffffffffffffffffffffff021916908373ffffffffffffffffffffffffffffffffffffffff160217905550505062000364565b8280546200015e90620002cb565b90600052602060002090601f016020900481019282620001825760008555620001ce565b82601f106200019d57805160ff1916838001178555620001ce565b82800160010185558215620001ce579182015b82811115620001cd578251825591602001919060010190620001b0565b5b509050620001dd9190620001e1565b5090565b5b80821115620001fc576000816000905550600101620001e2565b5090565b600081519050620002118162000330565b92915050565b60008151905062000228816200034a565b92915050565b600080604083850312156200024257600080fd5b6000620002528582860162000217565b9250506020620002658582860162000200565b9150509250929050565b60006200027c82620002ab565b9050919050565b600062000290826200026f565b9050919050565b6000620002a4826200026f565b9050919050565b600073ffffffffffffffffffffffffffffffffffffffff82169050919050565b60006002820490506001821680620002e457607f821691505b60208210811415620002fb57620002fa62000301565b5b50919050565b7f4e487b7100000000000000000000000000000000000000000000000000000000600052602260045260246000fd5b6200033b8162000283565b81146200034757600080fd5b50565b620003558162000297565b81146200036157600080fd5b50565b6110a180620003746000396000f3fe608060405234801561001057600080fd5b50600436106100a95760003560e01c80638da5cb5b116100715780638da5cb5b14610154578063a1ee8c7814610172578063c93c8f341461017c578063cda6b847146101ac578063fc9200ad146101c8578063fd5e6dd1146101e6576100a9565b806306fdde03146100ae57806320eb640c146100cc57806345bc78ab146100d65780636f49712b146101065780637e7c8c6e14610136575b600080fd5b6100b6610216565b6040516100c39190610cc9565b60405180910390f35b6100d46102a4565b005b6100f060048036038101906100eb9190610a95565b61047b565b6040516100fd9190610d4b565b60405180910390f35b610120600480360381019061011b9190610a95565b610493565b60405161012d9190610c78565b60405180910390f35b61013e6104b3565b60405161014b9190610c93565b60405180910390f35b61015c6104d9565b6040516101699190610bfd565b60405180910390f35b61017a6104ff565b005b61019660048036038101906101919190610a95565b61071e565b6040516101a39190610c78565b60405180910390f35b6101c660048036038101906101c19190610ae7565b61073e565b005b6101d06109f1565b6040516101dd9190610cae565b60405180910390f35b61020060048036038101906101fb9190610ae7565b610a17565b60405161020d9190610bfd565b60405180910390f35b6000805461022390610e9b565b80601f016020809104026020016040519081016040528092919081815260200182805461024f90610e9b565b801561029c5780601f106102715761010080835404028352916020019161029c565b820191906000526020600020905b81548152906001019060200180831161027f57829003601f168201915b505050505081565b6000600560003373ffffffffffffffffffffffffffffffffffffffff1673ffffffffffffffffffffffffffffffffffffffff1681526020019081526020016000205490506000811161032b576040517f08c379a000000000000000000000000000000000000000000000000000000000815260040161032290610d0b565b60405180910390fd5b600260009054906101000a900473ffffffffffffffffffffffffffffffffffffffff1673ffffffffffffffffffffffffffffffffffffffff1663a9059cbb33836040518363ffffffff1660e01b8152600401610388929190610c4f565b602060405180830381600087803b1580156103a257600080fd5b505af11580156103b6573d6000803e3d6000fd5b505050506040513d601f19601f820116820180604052508101906103da9190610abe565b506000600560003373ffffffffffffffffffffffffffffffffffffffff1673ffffffffffffffffffffffffffffffffffffffff168152602001908152602001600020819055506000600760003373ffffffffffffffffffffffffffffffffffffffff1673ffffffffffffffffffffffffffffffffffffffff16815260200190815260200160002060006101000a81548160ff02191690831515021790555050565b60056020528060005260406000206000915090505481565b60076020528060005260406000206000915054906101000a900460ff1681565b600360009054906101000a900473ffffffffffffffffffffffffffffffffffffffff1681565b600160009054906101000a900473ffffffffffffffffffffffffffffffffffffffff1681565b600160009054906101000a900473ffffffffffffffffffffffffffffffffffffffff1673ffffffffffffffffffffffffffffffffffffffff163373ffffffffffffffffffffffffffffffffffffffff161461058f576040517f08c379a000000000000000000000000000000000000000000000000000000000815260040161058690610ceb565b60405180910390fd5b60005b60048054905081101561071b576000600482815481106105db577f4e487b7100000000000000000000000000000000000000000000000000000000600052603260045260246000fd5b9060005260206000200160009054906101000a900473ffffffffffffffffffffffffffffffffffffffff1690506000600560008373ffffffffffffffffffffffffffffffffffffffff1673ffffffffffffffffffffffffffffffffffffffff168152602001908152602001600020549050600081111561070657600360009054906101000a900473ffffffffffffffffffffffffffffffffffffffff1673ffffffffffffffffffffffffffffffffffffffff1663a9059cbb83836040518363ffffffff1660e01b81526004016106b2929190610c4f565b602060405180830381600087803b1580156106cc57600080fd5b505af11580156106e0573d6000803e3d6000fd5b505050506040513d601f19601f820116820180604052508101906107049190610abe565b505b5050808061071390610ecd565b915050610592565b50565b60066020528060005260406000206000915054906101000a900460ff1681565b60008111610781576040517f08c379a000000000000000000000000000000000000000000000000000000000815260040161077890610d2b565b60405180910390fd5b600260009054906101000a900473ffffffffffffffffffffffffffffffffffffffff1673ffffffffffffffffffffffffffffffffffffffff166323b872dd3330846040518463ffffffff1660e01b81526004016107e093929190610c18565b602060405180830381600087803b1580156107fa57600080fd5b505af115801561080e573d6000803e3d6000fd5b505050506040513d601f19601f820116820180604052508101906108329190610abe565b5080600560003373ffffffffffffffffffffffffffffffffffffffff1673ffffffffffffffffffffffffffffffffffffffff16815260200190815260200160002060008282546108829190610d82565b92505081905550600660003373ffffffffffffffffffffffffffffffffffffffff1673ffffffffffffffffffffffffffffffffffffffff16815260200190815260200160002060009054906101000a900460ff1661093e576004339080600181540180825580915050600190039060005260206000200160009091909190916101000a81548173ffffffffffffffffffffffffffffffffffffffff021916908373ffffffffffffffffffffffffffffffffffffffff1602179055505b6001600760003373ffffffffffffffffffffffffffffffffffffffff1673ffffffffffffffffffffffffffffffffffffffff16815260200190815260200160002060006101000a81548160ff0219169083151502179055506001600660003373ffffffffffffffffffffffffffffffffffffffff1673ffffffffffffffffffffffffffffffffffffffff16815260200190815260200160002060006101000a81548160ff02191690831515021790555050565b600260009054906101000a900473ffffffffffffffffffffffffffffffffffffffff1681565b60048181548110610a2757600080fd5b906000526020600020016000915054906101000a900473ffffffffffffffffffffffffffffffffffffffff1681565b600081359050610a6581611026565b92915050565b600081519050610a7a8161103d565b92915050565b600081359050610a8f81611054565b92915050565b600060208284031215610aa757600080fd5b6000610ab584828501610a56565b91505092915050565b600060208284031215610ad057600080fd5b6000610ade84828501610a6b565b91505092915050565b600060208284031215610af957600080fd5b6000610b0784828501610a80565b91505092915050565b610b1981610dd8565b82525050565b610b2881610dea565b82525050565b610b3781610e20565b82525050565b610b4681610e44565b82525050565b6000610b5782610d66565b610b618185610d71565b9350610b71818560208601610e68565b610b7a81610f74565b840191505092915050565b6000610b92601083610d71565b9150610b9d82610f85565b602082019050919050565b6000610bb5601b83610d71565b9150610bc082610fae565b602082019050919050565b6000610bd8602283610d71565b9150610be382610fd7565b604082019050919050565b610bf781610e16565b82525050565b6000602082019050610c126000830184610b10565b92915050565b6000606082019050610c2d6000830186610b10565b610c3a6020830185610b10565b610c476040830184610bee565b949350505050565b6000604082019050610c646000830185610b10565b610c716020830184610bee565b9392505050565b6000602082019050610c8d6000830184610b1f565b92915050565b6000602082019050610ca86000830184610b2e565b92915050565b6000602082019050610cc36000830184610b3d565b92915050565b60006020820190508181036000830152610ce38184610b4c565b905092915050565b60006020820190508181036000830152610d0481610b85565b9050919050565b60006020820190508181036000830152610d2481610ba8565b9050919050565b60006020820190508181036000830152610d4481610bcb565b9050919050565b6000602082019050610d606000830184610bee565b92915050565b600081519050919050565b600082825260208201905092915050565b6000610d8d82610e16565b9150610d9883610e16565b9250827fffffffffffffffffffffffffffffffffffffffffffffffffffffffffffffffff03821115610dcd57610dcc610f16565b5b828201905092915050565b6000610de382610df6565b9050919050565b60008115159050919050565b600073ffffffffffffffffffffffffffffffffffffffff82169050919050565b6000819050919050565b6000610e2b82610e32565b9050919050565b6000610e3d82610df6565b9050919050565b6000610e4f82610e56565b9050919050565b6000610e6182610df6565b9050919050565b60005b83811015610e86578082015181840152602081019050610e6b565b83811115610e95576000848401525b50505050565b60006002820490506001821680610eb357607f821691505b60208210811415610ec757610ec6610f45565b5b50919050565b6000610ed882610e16565b91507fffffffffffffffffffffffffffffffffffffffffffffffffffffffffffffffff821415610f0b57610f0a610f16565b5b600182019050919050565b7f4e487b7100000000000000000000000000000000000000000000000000000000600052601160045260246000fd5b7f4e487b7100000000000000000000000000000000000000000000000000000000600052602260045260246000fd5b6000601f19601f8301169050919050565b7f4e6f206572657320656c206f776e657200000000000000000000000000000000600082015250565b7f456c2062616c616e63652064656c205374616b696e6720657320300000000000600082015250565b7f4c612063616e7469646164206e6f20707565646520736572206d656e6f72206160008201527f2030000000000000000000000000000000000000000000000000000000000000602082015250565b61102f81610dd8565b811461103a57600080fd5b50565b61104681610dea565b811461105157600080fd5b50565b61105d81610e16565b811461106857600080fd5b5056fea26469706673582212201e151c18caed7dfffe26165e6a338524d8f7728027ee011f7dcde66b1ff2ff1664736f6c63430008040033",
  "immutableReferences": {},
  "source": "// SPDX-License-Identifier: MIT\npragma solidity ^0.8.4;\n\nimport \"./RobToken.sol\";\nimport \"./CatToken.sol\";\n\ncontract TokenFarm {\n    \n    // Declaraciones iniciales\n    string public name = \"Rob Token Farm\";\n    address public owner;\n    RobToken public robToken;\n    CatToken public catToken;\n\n    // Estructura de datos\n    address [] public stakers;\n    mapping(address => uint) public stakingBalance;\n    mapping(address => bool) public hasStaked;\n    mapping(address => bool) public isStaking;\n\n    // Constructor \n    constructor(RobToken _robToken, CatToken _catToken) {\n        robToken = _robToken;\n        catToken = _catToken;\n        owner = msg.sender;\n    }\n\n    // Stake de tokens\n    function stakeToken(uint _amount) public {\n        // Se requiere una cantidad mayor a 0\n        require(_amount > 0, \"La cantidad no puede ser menor a 0\");\n        // Tranferir ROB al Smart Contract principal\n        robToken.transferFrom(msg.sender, address(this), _amount);\n        // Actualizar saldo del Staking\n        stakingBalance[msg.sender] +=_amount;\n        // Guardar el Staker\n        if(!hasStaked[msg.sender]){\n            stakers.push(msg.sender);\n        }\n\n        // Actualizar el estado del staking\n        isStaking[msg.sender] = true;\n        hasStaked[msg.sender] = true;\n    }\n\n    // Quitar el staking de los tokens\n    function unstakeToken() public {\n        // Saldo del staking de un usuario\n        uint balance = stakingBalance[msg.sender];\n        // Se requiere una cantidad superior a 0\n        require(balance > 0, \"El balance del Staking es 0\");\n        // Transferencia de los tokens al usuario\n        robToken.transfer(msg.sender, balance);\n        // Resetea el balance del staking del usuario\n        stakingBalance[msg.sender] = 0;\n        // Actualiza el estado del staking\n        isStaking[msg.sender] = false;\n    }\n\n    // Emision de tokens (recompensas)\n    function issueToken() public {\n        // Unicamente ejecutable por el owner\n        require(msg.sender == owner, \"No eres el owner\");\n        // Emitir tokens a t0odos los stakers \n        for (uint i=0; i < stakers.length; i++){\n            address recipient = stakers[i];\n            uint balance = stakingBalance[recipient];\n            if(balance > 0){\n                catToken.transfer(recipient, balance);\n            }\n        }\n    }\n}\n",
  "sourcePath": "C:\\Users\\rober_m72ddjp\\Desktop\\Coding\\amengual\\DEFI\\src\\contracts\\TokenFarm.sol",
  "compiler": {
    "name": "solc",
    "version": "0.8.4+commit.c7e474f2.Emscripten.clang"
  },
  "schemaVersion": "3.4.7",
  "updatedAt": "2024-11-25T16:48:18.240Z",
  "networkType": "ethereum",
  "devdoc": {
    "kind": "dev",
    "methods": {},
    "version": 1
  },
  "userdoc": {
    "kind": "user",
    "methods": {},
    "version": 1
  }
}